{
  "_format": "hh-sol-artifact-1",
  "contractName": "Marketplace",
  "sourceName": "src/backend/contracts/Marketplace.sol",
  "abi": [
    {
      "inputs": [
        {
          "internalType": "uint256",
          "name": "_hostFeePercent",
          "type": "uint256"
        }
      ],
      "stateMutability": "nonpayable",
      "type": "constructor"
    },
    {
      "anonymous": false,
      "inputs": [
        {
          "indexed": false,
          "internalType": "uint256",
          "name": "releaseId",
          "type": "uint256"
        },
        {
          "indexed": true,
          "internalType": "address",
          "name": "nft",
          "type": "address"
        },
        {
          "indexed": false,
          "internalType": "uint256",
          "name": "tokenId",
          "type": "uint256"
        },
        {
          "indexed": false,
          "internalType": "uint256",
          "name": "price",
          "type": "uint256"
        },
        {
          "indexed": true,
          "internalType": "address",
          "name": "seller",
          "type": "address"
        },
        {
          "indexed": true,
          "internalType": "address",
          "name": "buyer",
          "type": "address"
        }
      ],
      "name": "Bought",
      "type": "event"
    },
    {
      "anonymous": false,
      "inputs": [
        {
          "indexed": false,
          "internalType": "uint256",
          "name": "releaseId",
          "type": "uint256"
        },
        {
          "indexed": true,
          "internalType": "address",
          "name": "nft",
          "type": "address"
        },
        {
          "indexed": false,
          "internalType": "uint256",
          "name": "tokenId",
          "type": "uint256"
        },
        {
          "indexed": false,
          "internalType": "uint256",
          "name": "price",
          "type": "uint256"
        },
        {
          "indexed": true,
          "internalType": "address",
          "name": "seller",
          "type": "address"
        }
      ],
      "name": "Offered",
      "type": "event"
    },
    {
      "inputs": [
        {
          "internalType": "uint256",
          "name": "_releaseId",
          "type": "uint256"
        }
      ],
      "name": "getTotalPrice",
      "outputs": [
        {
          "internalType": "uint256",
          "name": "",
          "type": "uint256"
        }
      ],
      "stateMutability": "view",
      "type": "function"
    },
    {
      "inputs": [],
      "name": "hostAcc",
      "outputs": [
        {
          "internalType": "address payable",
          "name": "",
          "type": "address"
        }
      ],
      "stateMutability": "view",
      "type": "function"
    },
    {
      "inputs": [],
      "name": "hostFeePercent",
      "outputs": [
        {
          "internalType": "uint256",
          "name": "",
          "type": "uint256"
        }
      ],
      "stateMutability": "view",
      "type": "function"
    },
    {
      "inputs": [
        {
          "internalType": "contract IERC721",
          "name": "_nft",
          "type": "address"
        },
        {
          "internalType": "uint256",
          "name": "_tokenId",
          "type": "uint256"
        },
        {
          "internalType": "uint256",
          "name": "_price",
          "type": "uint256"
        }
      ],
      "name": "makeRelease",
      "outputs": [],
      "stateMutability": "nonpayable",
      "type": "function"
    },
    {
      "inputs": [
        {
          "internalType": "uint256",
          "name": "_releaseId",
          "type": "uint256"
        }
      ],
      "name": "purchaseRelease",
      "outputs": [],
      "stateMutability": "payable",
      "type": "function"
    },
    {
      "inputs": [],
      "name": "releaseCount",
      "outputs": [
        {
          "internalType": "uint256",
          "name": "",
          "type": "uint256"
        }
      ],
      "stateMutability": "view",
      "type": "function"
    },
    {
      "inputs": [
        {
          "internalType": "uint256",
          "name": "",
          "type": "uint256"
        }
      ],
      "name": "releases",
      "outputs": [
        {
          "internalType": "uint256",
          "name": "releaseId",
          "type": "uint256"
        },
        {
          "internalType": "contract IERC721",
          "name": "nft",
          "type": "address"
        },
        {
          "internalType": "uint256",
          "name": "tokenId",
          "type": "uint256"
        },
        {
          "internalType": "uint256",
          "name": "price",
          "type": "uint256"
        },
        {
          "internalType": "address payable",
          "name": "seller",
          "type": "address"
        },
        {
          "internalType": "bool",
          "name": "sold",
          "type": "bool"
        }
      ],
      "stateMutability": "view",
      "type": "function"
    },
    {
      "inputs": [
        {
          "components": [
            {
              "internalType": "uint256",
              "name": "releaseId",
              "type": "uint256"
            },
            {
              "internalType": "contract IERC721",
              "name": "nft",
              "type": "address"
            },
            {
              "internalType": "uint256",
              "name": "tokenId",
              "type": "uint256"
            },
            {
              "internalType": "uint256",
              "name": "price",
              "type": "uint256"
            },
            {
              "internalType": "address payable",
              "name": "seller",
              "type": "address"
            },
            {
              "internalType": "bool",
              "name": "sold",
              "type": "bool"
            }
          ],
          "internalType": "struct Marketplace.Release",
          "name": "release",
          "type": "tuple"
        }
      ],
      "name": "relist",
      "outputs": [],
      "stateMutability": "nonpayable",
      "type": "function"
    }
  ],
  "bytecode": "0x60c060405234801561001057600080fd5b50604051620014563803806200145683398181016040528101906100349190610096565b60016000819055503373ffffffffffffffffffffffffffffffffffffffff1660808173ffffffffffffffffffffffffffffffffffffffff1660601b815250508060a08181525050506100e0565b600081519050610090816100c9565b92915050565b6000602082840312156100a857600080fd5b60006100b684828501610081565b91505092915050565b6000819050919050565b6100d2816100bf565b81146100dd57600080fd5b50565b60805160601c60a05161133f620001176000396000818161050f01526109f70152600081816106ef0152610a1b015261133f6000f3fe60806040526004361061007b5760003560e01c8063db3c6ffa1161004e578063db3c6ffa14610153578063e1ab076e1461016f578063e1f4a31614610198578063e5cc7e9a146101c35761007b565b8063aedfccec14610080578063b6a9f40f146100a9578063b8d08db2146100eb578063ca7dd37514610116575b600080fd5b34801561008c57600080fd5b506100a760048036038101906100a29190610b87565b6101ee565b005b3480156100b557600080fd5b506100d060048036038101906100cb9190610bff565b61047a565b6040516100e296959493929190610e2f565b60405180910390f35b3480156100f757600080fd5b50610100610503565b60405161010d9190610e14565b60405180910390f35b34801561012257600080fd5b5061013d60048036038101906101389190610bff565b610509565b60405161014a9190610e14565b60405180910390f35b61016d60048036038101906101689190610bff565b61056c565b005b34801561017b57600080fd5b5061019660048036038101906101919190610bd6565b6108f4565b005b3480156101a457600080fd5b506101ad6109f5565b6040516101ba9190610e14565b60405180910390f35b3480156101cf57600080fd5b506101d8610a19565b6040516101e59190610d22565b60405180910390f35b6101f6610a3d565b60008111610239576040517f08c379a000000000000000000000000000000000000000000000000000000000815260040161023090610d94565b60405180910390fd5b6001600081548092919061024c906110d3565b91905055508273ffffffffffffffffffffffffffffffffffffffff166323b872dd3330856040518463ffffffff1660e01b815260040161028e93929190610d3d565b600060405180830381600087803b1580156102a857600080fd5b505af11580156102bc573d6000803e3d6000fd5b505050506040518060c0016040528060015481526020018473ffffffffffffffffffffffffffffffffffffffff1681526020018381526020018281526020013373ffffffffffffffffffffffffffffffffffffffff168152602001600015158152506002600060015481526020019081526020016000206000820151816000015560208201518160010160006101000a81548173ffffffffffffffffffffffffffffffffffffffff021916908373ffffffffffffffffffffffffffffffffffffffff160217905550604082015181600201556060820151816003015560808201518160040160006101000a81548173ffffffffffffffffffffffffffffffffffffffff021916908373ffffffffffffffffffffffffffffffffffffffff16021790555060a08201518160040160146101000a81548160ff0219169083151502179055509050503373ffffffffffffffffffffffffffffffffffffffff168373ffffffffffffffffffffffffffffffffffffffff167f655a0cf9c8db81512be9a76dc1c5ae5380b8816ce6ad659cd61b715e2999d59a600154858560405161046593929190610e90565b60405180910390a3610475610a8d565b505050565b60026020528060005260406000206000915090508060000154908060010160009054906101000a900473ffffffffffffffffffffffffffffffffffffffff16908060020154908060030154908060040160009054906101000a900473ffffffffffffffffffffffffffffffffffffffff16908060040160149054906101000a900460ff16905086565b60015481565b600060647f0000000000000000000000000000000000000000000000000000000000000000606461053a9190610efd565b600260008581526020019081526020016000206003015461055b9190610f84565b6105659190610f53565b9050919050565b610574610a3d565b600061057f82610509565b905060006002600084815260200190815260200160002090506000831180156105aa57506001548311155b6105e9576040517f08c379a00000000000000000000000000000000000000000000000000000000081526004016105e090610d74565b60405180910390fd5b8134101561062c576040517f08c379a000000000000000000000000000000000000000000000000000000000815260040161062390610dd4565b60405180910390fd5b8060040160149054906101000a900460ff161561067e576040517f08c379a000000000000000000000000000000000000000000000000000000000815260040161067590610db4565b60405180910390fd5b8060040160009054906101000a900473ffffffffffffffffffffffffffffffffffffffff1673ffffffffffffffffffffffffffffffffffffffff166108fc82600301549081150290604051600060405180830381858888f193505050501580156106ec573d6000803e3d6000fd5b507f000000000000000000000000000000000000000000000000000000000000000073ffffffffffffffffffffffffffffffffffffffff166108fc8260030154846107379190610fde565b9081150290604051600060405180830381858888f19350505050158015610762573d6000803e3d6000fd5b5060018160040160146101000a81548160ff0219169083151502179055508060010160009054906101000a900473ffffffffffffffffffffffffffffffffffffffff1673ffffffffffffffffffffffffffffffffffffffff166323b872dd303384600201546040518463ffffffff1660e01b81526004016107e593929190610d3d565b600060405180830381600087803b1580156107ff57600080fd5b505af1158015610813573d6000803e3d6000fd5b505050503373ffffffffffffffffffffffffffffffffffffffff168160040160009054906101000a900473ffffffffffffffffffffffffffffffffffffffff1673ffffffffffffffffffffffffffffffffffffffff168260010160009054906101000a900473ffffffffffffffffffffffffffffffffffffffff1673ffffffffffffffffffffffffffffffffffffffff167f8b4c9c8a607d67b321582dd8461041b1dc2ceeca70c8b7f37f8e02095cf2e76d86856002015486600301546040516108df93929190610e90565b60405180910390a450506108f1610a8d565b50565b6108fc610a3d565b806020015173ffffffffffffffffffffffffffffffffffffffff166323b872dd333084604001516040518463ffffffff1660e01b815260040161094193929190610d3d565b600060405180830381600087803b15801561095b57600080fd5b505af115801561096f573d6000803e3d6000fd5b505050503373ffffffffffffffffffffffffffffffffffffffff16816020015173ffffffffffffffffffffffffffffffffffffffff167f655a0cf9c8db81512be9a76dc1c5ae5380b8816ce6ad659cd61b715e2999d59a600154846040015185606001516040516109e293929190610e90565b60405180910390a36109f2610a8d565b50565b7f000000000000000000000000000000000000000000000000000000000000000081565b7f000000000000000000000000000000000000000000000000000000000000000081565b60026000541415610a83576040517f08c379a0000000000000000000000000000000000000000000000000000000008152600401610a7a90610df4565b60405180910390fd5b6002600081905550565b6001600081905550565b600081359050610aa6816112ad565b92915050565b600081359050610abb816112c4565b92915050565b600081359050610ad0816112db565b92915050565b600060c08284031215610ae857600080fd5b610af260c0610ec7565b90506000610b0284828501610b72565b6000830152506020610b1684828501610ac1565b6020830152506040610b2a84828501610b72565b6040830152506060610b3e84828501610b72565b6060830152506080610b5284828501610a97565b60808301525060a0610b6684828501610aac565b60a08301525092915050565b600081359050610b81816112f2565b92915050565b600080600060608486031215610b9c57600080fd5b6000610baa86828701610ac1565b9350506020610bbb86828701610b72565b9250506040610bcc86828701610b72565b9150509250925092565b600060c08284031215610be857600080fd5b6000610bf684828501610ad6565b91505092915050565b600060208284031215610c1157600080fd5b6000610c1f84828501610b72565b91505092915050565b610c3181611024565b82525050565b610c4081611012565b82525050565b610c4f81611036565b82525050565b610c5e8161107e565b82525050565b6000610c71601583610eec565b9150610c7c826111ba565b602082019050919050565b6000610c94601f83610eec565b9150610c9f826111e3565b602082019050919050565b6000610cb7601483610eec565b9150610cc28261120c565b602082019050919050565b6000610cda603683610eec565b9150610ce582611235565b604082019050919050565b6000610cfd601f83610eec565b9150610d0882611284565b602082019050919050565b610d1c81611074565b82525050565b6000602082019050610d376000830184610c28565b92915050565b6000606082019050610d526000830186610c37565b610d5f6020830185610c37565b610d6c6040830184610d13565b949350505050565b60006020820190508181036000830152610d8d81610c64565b9050919050565b60006020820190508181036000830152610dad81610c87565b9050919050565b60006020820190508181036000830152610dcd81610caa565b9050919050565b60006020820190508181036000830152610ded81610ccd565b9050919050565b60006020820190508181036000830152610e0d81610cf0565b9050919050565b6000602082019050610e296000830184610d13565b92915050565b600060c082019050610e446000830189610d13565b610e516020830188610c55565b610e5e6040830187610d13565b610e6b6060830186610d13565b610e786080830185610c28565b610e8560a0830184610c46565b979650505050505050565b6000606082019050610ea56000830186610d13565b610eb26020830185610d13565b610ebf6040830184610d13565b949350505050565b6000610ed1610ee2565b9050610edd82826110a2565b919050565b6000604051905090565b600082825260208201905092915050565b6000610f0882611074565b9150610f1383611074565b9250827fffffffffffffffffffffffffffffffffffffffffffffffffffffffffffffffff03821115610f4857610f4761111c565b5b828201905092915050565b6000610f5e82611074565b9150610f6983611074565b925082610f7957610f7861114b565b5b828204905092915050565b6000610f8f82611074565b9150610f9a83611074565b9250817fffffffffffffffffffffffffffffffffffffffffffffffffffffffffffffffff0483118215151615610fd357610fd261111c565b5b828202905092915050565b6000610fe982611074565b9150610ff483611074565b9250828210156110075761100661111c565b5b828203905092915050565b600061101d82611054565b9050919050565b600061102f82611054565b9050919050565b60008115159050919050565b600061104d82611012565b9050919050565b600073ffffffffffffffffffffffffffffffffffffffff82169050919050565b6000819050919050565b600061108982611090565b9050919050565b600061109b82611054565b9050919050565b6110ab826111a9565b810181811067ffffffffffffffff821117156110ca576110c961117a565b5b80604052505050565b60006110de82611074565b91507fffffffffffffffffffffffffffffffffffffffffffffffffffffffffffffffff8214156111115761111061111c565b5b600182019050919050565b7f4e487b7100000000000000000000000000000000000000000000000000000000600052601160045260246000fd5b7f4e487b7100000000000000000000000000000000000000000000000000000000600052601260045260246000fd5b7f4e487b7100000000000000000000000000000000000000000000000000000000600052604160045260246000fd5b6000601f19601f8301169050919050565b7f72656c6561736520646f65736e27742065786973740000000000000000000000600082015250565b7f5072696365206d7573742062652067726561746572207468616e207a65726f00600082015250565b7f72656c6561736520616c726561647920736f6c64000000000000000000000000600082015250565b7f6e6f7420656e6f75676820657468657220746f20636f7665722072656c65617360008201527f6520707269636520616e64206d61726b65742066656500000000000000000000602082015250565b7f5265656e7472616e637947756172643a207265656e7472616e742063616c6c00600082015250565b6112b681611024565b81146112c157600080fd5b50565b6112cd81611036565b81146112d857600080fd5b50565b6112e481611042565b81146112ef57600080fd5b50565b6112fb81611074565b811461130657600080fd5b5056fea2646970667358221220d1359310a4aedfa89569448cd0f8e057e715b6a9c08be37331f3b5edeb3f0ed164736f6c63430008040033",
  "linkReferences": {},
  "deployedLinkReferences": {}
}