{
  "_format": "hh-sol-artifact-1",
  "contractName": "Marketplace",
  "sourceName": "src/backend/contracts/Marketplace.sol",
  "abi": [
    {
      "inputs": [
        {
          "internalType": "uint256",
          "name": "_hostFeePercent",
          "type": "uint256"
        }
      ],
      "stateMutability": "nonpayable",
      "type": "constructor"
    },
    {
      "anonymous": false,
      "inputs": [
        {
          "indexed": false,
          "internalType": "uint256",
          "name": "releaseId",
          "type": "uint256"
        },
        {
          "indexed": true,
          "internalType": "address",
          "name": "musicnft",
          "type": "address"
        },
        {
          "indexed": false,
          "internalType": "uint256",
          "name": "tokenId",
          "type": "uint256"
        },
        {
          "indexed": false,
          "internalType": "uint256",
          "name": "price",
          "type": "uint256"
        },
        {
          "indexed": true,
          "internalType": "address",
          "name": "seller",
          "type": "address"
        },
        {
          "indexed": true,
          "internalType": "address",
          "name": "buyer",
          "type": "address"
        }
      ],
      "name": "Bought",
      "type": "event"
    },
    {
      "anonymous": false,
      "inputs": [
        {
          "indexed": false,
          "internalType": "uint256",
          "name": "releaseId",
          "type": "uint256"
        },
        {
          "indexed": true,
          "internalType": "address",
          "name": "musicnft",
          "type": "address"
        },
        {
          "indexed": false,
          "internalType": "uint256",
          "name": "tokenId",
          "type": "uint256"
        },
        {
          "indexed": false,
          "internalType": "uint256",
          "name": "price",
          "type": "uint256"
        },
        {
          "indexed": true,
          "internalType": "address",
          "name": "seller",
          "type": "address"
        }
      ],
      "name": "Offered",
      "type": "event"
    },
    {
      "inputs": [
        {
          "internalType": "uint256",
          "name": "_releaseId",
          "type": "uint256"
        }
      ],
      "name": "getTotalPrice",
      "outputs": [
        {
          "internalType": "uint256",
          "name": "",
          "type": "uint256"
        }
      ],
      "stateMutability": "view",
      "type": "function"
    },
    {
      "inputs": [],
      "name": "hostAcc",
      "outputs": [
        {
          "internalType": "address payable",
          "name": "",
          "type": "address"
        }
      ],
      "stateMutability": "view",
      "type": "function"
    },
    {
      "inputs": [],
      "name": "hostFeePercent",
      "outputs": [
        {
          "internalType": "uint256",
          "name": "",
          "type": "uint256"
        }
      ],
      "stateMutability": "view",
      "type": "function"
    },
    {
      "inputs": [
        {
          "internalType": "contract IERC721",
          "name": "_musicnft",
          "type": "address"
        },
        {
          "internalType": "uint256",
          "name": "_tokenId",
          "type": "uint256"
        },
        {
          "internalType": "uint256",
          "name": "_price",
          "type": "uint256"
        }
      ],
      "name": "makeRelease",
      "outputs": [],
      "stateMutability": "nonpayable",
      "type": "function"
    },
    {
      "inputs": [
        {
          "internalType": "uint256",
          "name": "_releaseId",
          "type": "uint256"
        }
      ],
      "name": "purchaseRelease",
      "outputs": [],
      "stateMutability": "payable",
      "type": "function"
    },
    {
      "inputs": [],
      "name": "releaseCount",
      "outputs": [
        {
          "internalType": "uint256",
          "name": "",
          "type": "uint256"
        }
      ],
      "stateMutability": "view",
      "type": "function"
    },
    {
      "inputs": [
        {
          "internalType": "uint256",
          "name": "",
          "type": "uint256"
        }
      ],
      "name": "releases",
      "outputs": [
        {
          "internalType": "uint256",
          "name": "releaseId",
          "type": "uint256"
        },
        {
          "internalType": "contract IERC721",
          "name": "musicnft",
          "type": "address"
        },
        {
          "internalType": "uint256",
          "name": "tokenId",
          "type": "uint256"
        },
        {
          "internalType": "uint256",
          "name": "price",
          "type": "uint256"
        },
        {
          "internalType": "address payable",
          "name": "seller",
          "type": "address"
        },
        {
          "internalType": "bool",
          "name": "sold",
          "type": "bool"
        }
      ],
      "stateMutability": "view",
      "type": "function"
    }
  ],
  "bytecode": "0x60c060405234801561001057600080fd5b5060405161116b38038061116b83398181016040528101906100329190610094565b60016000819055503373ffffffffffffffffffffffffffffffffffffffff1660808173ffffffffffffffffffffffffffffffffffffffff1660601b815250508060a08181525050506100de565b60008151905061008e816100c7565b92915050565b6000602082840312156100a657600080fd5b60006100b48482850161007f565b91505092915050565b6000819050919050565b6100d0816100bd565b81146100db57600080fd5b50565b60805160601c60a051611057610114600039600081816104db01526108c20152600081816106bb01526108e601526110576000f3fe6080604052600436106100705760003560e01c8063ca7dd3751161004e578063ca7dd3751461010b578063db3c6ffa14610148578063e1f4a31614610164578063e5cc7e9a1461018f57610070565b8063aedfccec14610075578063b6a9f40f1461009e578063b8d08db2146100e0575b600080fd5b34801561008157600080fd5b5061009c6004803603810190610097919061098c565b6101ba565b005b3480156100aa57600080fd5b506100c560048036038101906100c091906109db565b610446565b6040516100d796959493929190610c0b565b60405180910390f35b3480156100ec57600080fd5b506100f56104cf565b6040516101029190610bf0565b60405180910390f35b34801561011757600080fd5b50610132600480360381019061012d91906109db565b6104d5565b60405161013f9190610bf0565b60405180910390f35b610162600480360381019061015d91906109db565b610538565b005b34801561017057600080fd5b506101796108c0565b6040516101869190610bf0565b60405180910390f35b34801561019b57600080fd5b506101a46108e4565b6040516101b19190610afe565b60405180910390f35b6101c2610908565b60008111610205576040517f08c379a00000000000000000000000000000000000000000000000000000000081526004016101fc90610b70565b60405180910390fd5b6001600081548092919061021890610e59565b91905055508273ffffffffffffffffffffffffffffffffffffffff166323b872dd3330856040518463ffffffff1660e01b815260040161025a93929190610b19565b600060405180830381600087803b15801561027457600080fd5b505af1158015610288573d6000803e3d6000fd5b505050506040518060c0016040528060015481526020018473ffffffffffffffffffffffffffffffffffffffff1681526020018381526020018281526020013373ffffffffffffffffffffffffffffffffffffffff168152602001600015158152506002600060015481526020019081526020016000206000820151816000015560208201518160010160006101000a81548173ffffffffffffffffffffffffffffffffffffffff021916908373ffffffffffffffffffffffffffffffffffffffff160217905550604082015181600201556060820151816003015560808201518160040160006101000a81548173ffffffffffffffffffffffffffffffffffffffff021916908373ffffffffffffffffffffffffffffffffffffffff16021790555060a08201518160040160146101000a81548160ff0219169083151502179055509050503373ffffffffffffffffffffffffffffffffffffffff168373ffffffffffffffffffffffffffffffffffffffff167f655a0cf9c8db81512be9a76dc1c5ae5380b8816ce6ad659cd61b715e2999d59a600154858560405161043193929190610c6c565b60405180910390a3610441610958565b505050565b60026020528060005260406000206000915090508060000154908060010160009054906101000a900473ffffffffffffffffffffffffffffffffffffffff16908060020154908060030154908060040160009054906101000a900473ffffffffffffffffffffffffffffffffffffffff16908060040160149054906101000a900460ff16905086565b60015481565b600060647f000000000000000000000000000000000000000000000000000000000000000060646105069190610cb4565b60026000858152602001908152602001600020600301546105279190610d3b565b6105319190610d0a565b9050919050565b610540610908565b600061054b826104d5565b9050600060026000848152602001908152602001600020905060008311801561057657506001548311155b6105b5576040517f08c379a00000000000000000000000000000000000000000000000000000000081526004016105ac90610b50565b60405180910390fd5b813410156105f8576040517f08c379a00000000000000000000000000000000000000000000000000000000081526004016105ef90610bb0565b60405180910390fd5b8060040160149054906101000a900460ff161561064a576040517f08c379a000000000000000000000000000000000000000000000000000000000815260040161064190610b90565b60405180910390fd5b8060040160009054906101000a900473ffffffffffffffffffffffffffffffffffffffff1673ffffffffffffffffffffffffffffffffffffffff166108fc82600301549081150290604051600060405180830381858888f193505050501580156106b8573d6000803e3d6000fd5b507f000000000000000000000000000000000000000000000000000000000000000073ffffffffffffffffffffffffffffffffffffffff166108fc8260030154846107039190610d95565b9081150290604051600060405180830381858888f1935050505015801561072e573d6000803e3d6000fd5b5060018160040160146101000a81548160ff0219169083151502179055508060010160009054906101000a900473ffffffffffffffffffffffffffffffffffffffff1673ffffffffffffffffffffffffffffffffffffffff166323b872dd303384600201546040518463ffffffff1660e01b81526004016107b193929190610b19565b600060405180830381600087803b1580156107cb57600080fd5b505af11580156107df573d6000803e3d6000fd5b505050503373ffffffffffffffffffffffffffffffffffffffff168160040160009054906101000a900473ffffffffffffffffffffffffffffffffffffffff1673ffffffffffffffffffffffffffffffffffffffff168260010160009054906101000a900473ffffffffffffffffffffffffffffffffffffffff1673ffffffffffffffffffffffffffffffffffffffff167f8b4c9c8a607d67b321582dd8461041b1dc2ceeca70c8b7f37f8e02095cf2e76d86856002015486600301546040516108ab93929190610c6c565b60405180910390a450506108bd610958565b50565b7f000000000000000000000000000000000000000000000000000000000000000081565b7f000000000000000000000000000000000000000000000000000000000000000081565b6002600054141561094e576040517f08c379a000000000000000000000000000000000000000000000000000000000815260040161094590610bd0565b60405180910390fd5b6002600081905550565b6001600081905550565b60008135905061097181610ff3565b92915050565b6000813590506109868161100a565b92915050565b6000806000606084860312156109a157600080fd5b60006109af86828701610962565b93505060206109c086828701610977565b92505060406109d186828701610977565b9150509250925092565b6000602082840312156109ed57600080fd5b60006109fb84828501610977565b91505092915050565b610a0d81610ddb565b82525050565b610a1c81610dc9565b82525050565b610a2b81610ded565b82525050565b610a3a81610e35565b82525050565b6000610a4d601583610ca3565b9150610a5882610f00565b602082019050919050565b6000610a70601f83610ca3565b9150610a7b82610f29565b602082019050919050565b6000610a93601483610ca3565b9150610a9e82610f52565b602082019050919050565b6000610ab6603683610ca3565b9150610ac182610f7b565b604082019050919050565b6000610ad9601f83610ca3565b9150610ae482610fca565b602082019050919050565b610af881610e2b565b82525050565b6000602082019050610b136000830184610a04565b92915050565b6000606082019050610b2e6000830186610a13565b610b3b6020830185610a13565b610b486040830184610aef565b949350505050565b60006020820190508181036000830152610b6981610a40565b9050919050565b60006020820190508181036000830152610b8981610a63565b9050919050565b60006020820190508181036000830152610ba981610a86565b9050919050565b60006020820190508181036000830152610bc981610aa9565b9050919050565b60006020820190508181036000830152610be981610acc565b9050919050565b6000602082019050610c056000830184610aef565b92915050565b600060c082019050610c206000830189610aef565b610c2d6020830188610a31565b610c3a6040830187610aef565b610c476060830186610aef565b610c546080830185610a04565b610c6160a0830184610a22565b979650505050505050565b6000606082019050610c816000830186610aef565b610c8e6020830185610aef565b610c9b6040830184610aef565b949350505050565b600082825260208201905092915050565b6000610cbf82610e2b565b9150610cca83610e2b565b9250827fffffffffffffffffffffffffffffffffffffffffffffffffffffffffffffffff03821115610cff57610cfe610ea2565b5b828201905092915050565b6000610d1582610e2b565b9150610d2083610e2b565b925082610d3057610d2f610ed1565b5b828204905092915050565b6000610d4682610e2b565b9150610d5183610e2b565b9250817fffffffffffffffffffffffffffffffffffffffffffffffffffffffffffffffff0483118215151615610d8a57610d89610ea2565b5b828202905092915050565b6000610da082610e2b565b9150610dab83610e2b565b925082821015610dbe57610dbd610ea2565b5b828203905092915050565b6000610dd482610e0b565b9050919050565b6000610de682610e0b565b9050919050565b60008115159050919050565b6000610e0482610dc9565b9050919050565b600073ffffffffffffffffffffffffffffffffffffffff82169050919050565b6000819050919050565b6000610e4082610e47565b9050919050565b6000610e5282610e0b565b9050919050565b6000610e6482610e2b565b91507fffffffffffffffffffffffffffffffffffffffffffffffffffffffffffffffff821415610e9757610e96610ea2565b5b600182019050919050565b7f4e487b7100000000000000000000000000000000000000000000000000000000600052601160045260246000fd5b7f4e487b7100000000000000000000000000000000000000000000000000000000600052601260045260246000fd5b7f72656c6561736520646f65736e27742065786973740000000000000000000000600082015250565b7f5072696365206d7573742062652067726561746572207468616e207a65726f00600082015250565b7f72656c6561736520616c726561647920736f6c64000000000000000000000000600082015250565b7f6e6f7420656e6f75676820657468657220746f20636f7665722072656c65617360008201527f6520707269636520616e64206d61726b65742066656500000000000000000000602082015250565b7f5265656e7472616e637947756172643a207265656e7472616e742063616c6c00600082015250565b610ffc81610df9565b811461100757600080fd5b50565b61101381610e2b565b811461101e57600080fd5b5056fea264697066735822122039e7a3f6f08899a8573398a5751d6541376c3e7de668934834b06b6259df93e164736f6c63430008040033",
  "linkReferences": {},
  "deployedLinkReferences": {}
}